{
  "contractName": "VotingContract",
  "abi": [
    {
      "anonymous": false,
      "inputs": [
        {
          "indexed": false,
          "internalType": "uint256",
          "name": "candidateId",
          "type": "uint256"
        }
      ],
      "name": "CandidateRegistered",
      "type": "event"
    },
    {
      "anonymous": false,
      "inputs": [
        {
          "indexed": false,
          "internalType": "uint256",
          "name": "voterId",
          "type": "uint256"
        },
        {
          "indexed": false,
          "internalType": "uint256",
          "name": "candidateId",
          "type": "uint256"
        }
      ],
      "name": "VoteCast",
      "type": "event"
    },
    {
      "anonymous": false,
      "inputs": [
        {
          "indexed": false,
          "internalType": "uint256",
          "name": "voterId",
          "type": "uint256"
        }
      ],
      "name": "VoterRegistered",
      "type": "event"
    },
    {
      "inputs": [],
      "name": "candidateCount",
      "outputs": [
        {
          "internalType": "uint256",
          "name": "",
          "type": "uint256"
        }
      ],
      "stateMutability": "view",
      "type": "function",
      "constant": true
    },
    {
      "inputs": [
        {
          "internalType": "uint256",
          "name": "",
          "type": "uint256"
        }
      ],
      "name": "candidates",
      "outputs": [
        {
          "internalType": "string",
          "name": "name",
          "type": "string"
        },
        {
          "internalType": "uint256",
          "name": "age",
          "type": "uint256"
        },
        {
          "internalType": "string",
          "name": "partyRepresentation",
          "type": "string"
        },
        {
          "internalType": "uint256",
          "name": "citizenshipNumber",
          "type": "uint256"
        },
        {
          "internalType": "uint256",
          "name": "voteCount",
          "type": "uint256"
        }
      ],
      "stateMutability": "view",
      "type": "function",
      "constant": true
    },
    {
      "inputs": [],
      "name": "voterCount",
      "outputs": [
        {
          "internalType": "uint256",
          "name": "",
          "type": "uint256"
        }
      ],
      "stateMutability": "view",
      "type": "function",
      "constant": true
    },
    {
      "inputs": [
        {
          "internalType": "uint256",
          "name": "",
          "type": "uint256"
        }
      ],
      "name": "voters",
      "outputs": [
        {
          "internalType": "string",
          "name": "name",
          "type": "string"
        },
        {
          "internalType": "uint256",
          "name": "age",
          "type": "uint256"
        },
        {
          "internalType": "uint256",
          "name": "citizenshipNumber",
          "type": "uint256"
        },
        {
          "internalType": "bool",
          "name": "hasVoted",
          "type": "bool"
        }
      ],
      "stateMutability": "view",
      "type": "function",
      "constant": true
    },
    {
      "inputs": [
        {
          "internalType": "string",
          "name": "_name",
          "type": "string"
        },
        {
          "internalType": "uint256",
          "name": "_age",
          "type": "uint256"
        },
        {
          "internalType": "string",
          "name": "_partyRepresentation",
          "type": "string"
        },
        {
          "internalType": "uint256",
          "name": "_citizenshipNumber",
          "type": "uint256"
        }
      ],
      "name": "registerCandidate",
      "outputs": [],
      "stateMutability": "nonpayable",
      "type": "function"
    },
    {
      "inputs": [
        {
          "internalType": "string",
          "name": "_name",
          "type": "string"
        },
        {
          "internalType": "uint256",
          "name": "_age",
          "type": "uint256"
        },
        {
          "internalType": "uint256",
          "name": "_citizenshipNumber",
          "type": "uint256"
        }
      ],
      "name": "registerVoter",
      "outputs": [],
      "stateMutability": "nonpayable",
      "type": "function"
    },
    {
      "inputs": [
        {
          "internalType": "uint256",
          "name": "_voterId",
          "type": "uint256"
        },
        {
          "internalType": "uint256",
          "name": "_candidateId",
          "type": "uint256"
        }
      ],
      "name": "castVote",
      "outputs": [],
      "stateMutability": "nonpayable",
      "type": "function"
    }
  ],
  "bytecode": "0x608060405234801561001057600080fd5b506112e9806100206000396000f3fe608060405234801561001057600080fd5b506004361061007d5760003560e01c806342169e481161005b57806342169e48146100ee578063a9a981a31461010c578063c644db931461012a578063da58c7d9146101465761007d565b8063020f1172146100825780632c0a3f891461009e5780633477ee2e146100ba575b600080fd5b61009c60048036038101906100979190610a7c565b610179565b005b6100b860048036038101906100b39190610b0c565b6102e3565b005b6100d460048036038101906100cf9190610ae3565b61053d565b6040516100e5959493929190610e9d565b60405180910390f35b6100f6610683565b604051610103919061106a565b60405180910390f35b610114610689565b604051610121919061106a565b60405180910390f35b610144600480360381019061013f91906109e9565b61068f565b005b610160600480360381019061015b9190610ae3565b610804565b6040516101709493929190610efe565b60405180910390f35b60128210156101bd576040517f08c379a00000000000000000000000000000000000000000000000000000000081526004016101b49061102a565b60405180910390fd5b60008111610200576040517f08c379a00000000000000000000000000000000000000000000000000000000081526004016101f790610f6a565b60405180910390fd5b60405180608001604052808481526020018381526020018281526020016000151581525060016000600354815260200190815260200160002060008201518160000190805190602001906102559291906108c9565b50602082015181600101556040820151816002015560608201518160030160006101000a81548160ff0219169083151502179055509050507f640cfad995238c39f105b2884a2e9d3b1482d753cdcc97f2e7db4192e89121a86003546040516102be919061106a565b60405180910390a1600360008154809291906102d9906111b5565b9190505550505050565b6003548210610327576040517f08c379a000000000000000000000000000000000000000000000000000000000815260040161031e90610faa565b60405180910390fd5b600254811061036b576040517f08c379a00000000000000000000000000000000000000000000000000000000081526004016103629061104a565b60405180910390fd5b60006001600084815260200190815260200160002090508060030160009054906101000a900460ff16156103d4576040517f08c379a00000000000000000000000000000000000000000000000000000000081526004016103cb90610fea565b60405180910390fd5b60008060008481526020019081526020016000209050816001015481600101541115610435576040517f08c379a000000000000000000000000000000000000000000000000000000000815260040161042c90610f4a565b60405180910390fd5b816002015481600301541461047f576040517f08c379a000000000000000000000000000000000000000000000000000000000815260040161047690610f8a565b60405180910390fd5b6001816004015411156104c7576040517f08c379a00000000000000000000000000000000000000000000000000000000081526004016104be90610fca565b60405180910390fd5b8060040160008154809291906104dc906111b5565b919050555060018260030160006101000a81548160ff0219169083151502179055507fc31875ef3ed5138b71a0c1da7e494bc4d2ba4f567084ea481ec9c45f3a93948b848460405161052f929190611085565b60405180910390a150505050565b600060205280600052604060002060009150905080600001805461056090611183565b80601f016020809104026020016040519081016040528092919081815260200182805461058c90611183565b80156105d95780601f106105ae576101008083540402835291602001916105d9565b820191906000526020600020905b8154815290600101906020018083116105bc57829003601f168201915b5050505050908060010154908060020180546105f490611183565b80601f016020809104026020016040519081016040528092919081815260200182805461062090611183565b801561066d5780601f106106425761010080835404028352916020019161066d565b820191906000526020600020905b81548152906001019060200180831161065057829003601f168201915b5050505050908060030154908060040154905085565b60035481565b60025481565b60128310156106d3576040517f08c379a00000000000000000000000000000000000000000000000000000000081526004016106ca9061100a565b60405180910390fd5b60008111610716576040517f08c379a000000000000000000000000000000000000000000000000000000000815260040161070d90610f6a565b60405180910390fd5b6040518060a0016040528085815260200184815260200183815260200182815260200160008152506000806002548152602001908152602001600020600082015181600001908051906020019061076e9291906108c9565b506020820151816001015560408201518160020190805190602001906107959291906108c9565b5060608201518160030155608082015181600401559050507f43dcee486fabffa2fb551555bfaa5bfcf6a42f2d014032ccef94bf09d83855eb6002546040516107de919061106a565b60405180910390a1600260008154809291906107f9906111b5565b919050555050505050565b600160205280600052604060002060009150905080600001805461082790611183565b80601f016020809104026020016040519081016040528092919081815260200182805461085390611183565b80156108a05780601f10610875576101008083540402835291602001916108a0565b820191906000526020600020905b81548152906001019060200180831161088357829003601f168201915b5050505050908060010154908060020154908060030160009054906101000a900460ff16905084565b8280546108d590611183565b90600052602060002090601f0160209004810192826108f7576000855561093e565b82601f1061091057805160ff191683800117855561093e565b8280016001018555821561093e579182015b8281111561093d578251825591602001919060010190610922565b5b50905061094b919061094f565b5090565b5b80821115610968576000816000905550600101610950565b5090565b600061097f61097a846110df565b6110ae565b90508281526020810184848401111561099757600080fd5b6109a2848285611141565b509392505050565b600082601f8301126109bb57600080fd5b81356109cb84826020860161096c565b91505092915050565b6000813590506109e38161129c565b92915050565b600080600080608085870312156109ff57600080fd5b600085013567ffffffffffffffff811115610a1957600080fd5b610a25878288016109aa565b9450506020610a36878288016109d4565b935050604085013567ffffffffffffffff811115610a5357600080fd5b610a5f878288016109aa565b9250506060610a70878288016109d4565b91505092959194509250565b600080600060608486031215610a9157600080fd5b600084013567ffffffffffffffff811115610aab57600080fd5b610ab7868287016109aa565b9350506020610ac8868287016109d4565b9250506040610ad9868287016109d4565b9150509250925092565b600060208284031215610af557600080fd5b6000610b03848285016109d4565b91505092915050565b60008060408385031215610b1f57600080fd5b6000610b2d858286016109d4565b9250506020610b3e858286016109d4565b9150509250929050565b610b518161112b565b82525050565b6000610b628261110f565b610b6c818561111a565b9350610b7c818560208601611150565b610b858161128b565b840191505092915050565b6000610b9d60318361111a565b91507f596f752063616e6e6f7420766f746520666f7220612063616e6469646174652060008301527f796f756e676572207468616e20796f752e0000000000000000000000000000006020830152604082019050919050565b6000610c03601b8361111a565b91507f496e76616c696420636974697a656e73686970206e756d6265722e00000000006000830152602082019050919050565b6000610c4360378361111a565b91507f596f757220636974697a656e73686970206e756d62657220646f6573206e6f7460008301527f206d61746368207468652063616e64696461746527732e0000000000000000006020830152604082019050919050565b6000610ca960118361111a565b91507f496e76616c696420766f7465722049442e0000000000000000000000000000006000830152602082019050919050565b6000610ce960378361111a565b91507f546869732063616e6469646174652068617320616c726561647920726563656960008301527f766564206d6f7265207468616e206f6e6520766f74652e0000000000000000006020830152604082019050919050565b6000610d4f60208361111a565b91507f596f75206861766520616c7265616479206361737420796f757220766f74652e6000830152602082019050919050565b6000610d8f60298361111a565b91507f43616e64696461746573206d757374206265206174206c65617374203138207960008301527f65617273206f6c642e00000000000000000000000000000000000000000000006020830152604082019050919050565b6000610df560258361111a565b91507f566f74657273206d757374206265206174206c6561737420313820796561727360008301527f206f6c642e0000000000000000000000000000000000000000000000000000006020830152604082019050919050565b6000610e5b60158361111a565b91507f496e76616c69642063616e6469646174652049442e00000000000000000000006000830152602082019050919050565b610e9781611137565b82525050565b600060a0820190508181036000830152610eb78188610b57565b9050610ec66020830187610e8e565b8181036040830152610ed88186610b57565b9050610ee76060830185610e8e565b610ef46080830184610e8e565b9695505050505050565b60006080820190508181036000830152610f188187610b57565b9050610f276020830186610e8e565b610f346040830185610e8e565b610f416060830184610b48565b95945050505050565b60006020820190508181036000830152610f6381610b90565b9050919050565b60006020820190508181036000830152610f8381610bf6565b9050919050565b60006020820190508181036000830152610fa381610c36565b9050919050565b60006020820190508181036000830152610fc381610c9c565b9050919050565b60006020820190508181036000830152610fe381610cdc565b9050919050565b6000602082019050818103600083015261100381610d42565b9050919050565b6000602082019050818103600083015261102381610d82565b9050919050565b6000602082019050818103600083015261104381610de8565b9050919050565b6000602082019050818103600083015261106381610e4e565b9050919050565b600060208201905061107f6000830184610e8e565b92915050565b600060408201905061109a6000830185610e8e565b6110a76020830184610e8e565b9392505050565b6000604051905081810181811067ffffffffffffffff821117156110d5576110d461125c565b5b8060405250919050565b600067ffffffffffffffff8211156110fa576110f961125c565b5b601f19601f8301169050602081019050919050565b600081519050919050565b600082825260208201905092915050565b60008115159050919050565b6000819050919050565b82818337600083830152505050565b60005b8381101561116e578082015181840152602081019050611153565b8381111561117d576000848401525b50505050565b6000600282049050600182168061119b57607f821691505b602082108114156111af576111ae61122d565b5b50919050565b60006111c082611137565b91507fffffffffffffffffffffffffffffffffffffffffffffffffffffffffffffffff8214156111f3576111f26111fe565b5b600182019050919050565b7f4e487b7100000000000000000000000000000000000000000000000000000000600052601160045260246000fd5b7f4e487b7100000000000000000000000000000000000000000000000000000000600052602260045260246000fd5b7f4e487b7100000000000000000000000000000000000000000000000000000000600052604160045260246000fd5b6000601f19601f8301169050919050565b6112a581611137565b81146112b057600080fd5b5056fea264697066735822122079a9c37372eed45ce4f2f8742d6ee35205b3cc2e14beff73e312e9fe0023745564736f6c63430008000033",
  "immutableReferences": {},
  "source": "// SPDX-License-Identifier: UNLICENSED \r\npragma solidity ^0.8.0;\r\n\r\ncontract VotingContract {\r\n    struct Candidate {\r\n        string name;\r\n        uint256 age;\r\n        string partyRepresentation;\r\n        uint256 citizenshipNumber;\r\n        uint256 voteCount;\r\n    }\r\n\r\n    struct Voter {\r\n        string name;\r\n        uint256 age;\r\n        uint256 citizenshipNumber;\r\n        bool hasVoted;\r\n    }\r\n\r\n    mapping(uint256 => Candidate) public candidates;\r\n    mapping(uint256 => Voter) public voters;\r\n\r\n    uint256 public candidateCount;\r\n    uint256 public voterCount;\r\n\r\n    // Event emitted when a new candidate is registered\r\n    event CandidateRegistered(uint256 candidateId);\r\n\r\n    // Event emitted when a new voter is registered\r\n    event VoterRegistered(uint256 voterId);\r\n\r\n    // Event emitted when a vote is cast\r\n    event VoteCast(uint256 voterId, uint256 candidateId);\r\n\r\n    function registerCandidate(string memory _name, uint256 _age, string memory _partyRepresentation, uint256 _citizenshipNumber) public {\r\n        require(_age >= 18, \"Candidates must be at least 18 years old.\");\r\n        require(_citizenshipNumber > 0, \"Invalid citizenship number.\");\r\n\r\n        candidates[candidateCount] = Candidate(_name, _age, _partyRepresentation, _citizenshipNumber, 0);\r\n        emit CandidateRegistered(candidateCount);\r\n        candidateCount++;\r\n    }\r\n\r\n    function registerVoter(string memory _name, uint256 _age, uint256 _citizenshipNumber) public {\r\n        require(_age >= 18, \"Voters must be at least 18 years old.\");\r\n        require(_citizenshipNumber > 0, \"Invalid citizenship number.\");\r\n\r\n        voters[voterCount] = Voter(_name, _age, _citizenshipNumber, false);\r\n        emit VoterRegistered(voterCount);\r\n        voterCount++;\r\n    }\r\n\r\n    function castVote(uint256 _voterId, uint256 _candidateId) public {\r\n        require(_voterId < voterCount, \"Invalid voter ID.\");\r\n        require(_candidateId < candidateCount, \"Invalid candidate ID.\");\r\n\r\n        Voter storage voter = voters[_voterId];\r\n        require(!voter.hasVoted, \"You have already cast your vote.\");\r\n\r\n        Candidate storage candidate = candidates[_candidateId];\r\n        require(candidate.age <= voter.age, \"You cannot vote for a candidate younger than you.\");\r\n\r\n        // Check for double voting\r\n        require(candidate.citizenshipNumber == voter.citizenshipNumber, \"Your citizenship number does not match the candidate's.\");\r\n\r\n        // Check for fraudulent voting\r\n        require(candidate.voteCount <= 1, \"This candidate has already received more than one vote.\");\r\n\r\n        candidate.voteCount++;\r\n        voter.hasVoted = true;\r\n\r\n        emit VoteCast(_voterId, _candidateId);\r\n    }\r\n}\r\n",
  "sourcePath": "C:\\Users\\Asus\\Desktop\\projekts\\VotingApp\\contracts\\VotingContract.sol",
  "compiler": {
    "name": "solc",
    "version": "0.8.0+commit.c7dfd78e.Emscripten.clang"
  },
  "schemaVersion": "3.4.14",
  "updatedAt": "2023-06-10T17:06:08.310Z",
  "networkType": "ethereum",
  "devdoc": {
    "kind": "dev",
    "methods": {},
    "version": 1
  },
  "userdoc": {
    "kind": "user",
    "methods": {},
    "version": 1
  }
}